:0300000002058F67
:0C058F00787FE4F6D8FD7581520205D695
:1008EA0050494E4700504F4E47232323004F4B2376
:0308FA00232300B5
:10082C00014B000245000002470000024900000194
:10083C005200023D0000023F000002430000024C47
:10084C000001024E00010250000102410000013C77
:01085C00009B
:06069F00AB11AA12A91321
:0606A5008B308A3189321E
:1006AB00E4F539F53AF53BAB33AA34A935120280A0
:1006BB00AB30AA31A932F582758300120299FFC3C0
:1006CB0094304035EFD39439502FEF3395E0FEEF54
:1006DB0024D0FBEE34FFFAAE39AF3A7C007D0A1220
:1006EB0002FAEF2BF53AEE3AF539AB33AA34A935CA
:1006FB0074011202C6053B80AEE53B7002FF22ABD4
:0F070B0036AA37A938E539853AF012030C7F0179
:01071A0022BC
:06071B00AB11AA12A913A4
:100721008B308A318932AB33AA34A935120280ABBE
:1007310030AA31A932F582758300120299FEB430D4
:1007410013AB36AA37A938E41202E8AB33AA34A9AD
:1007510035048015EEB43117AB36AA37A9387401C8
:100761001202E8AB33AA34A9351202C67F01227FF7
:02077100002264
:080003008F993099FDC299228A
:1008CD00AD07AC068D828C83E49360100DED700145
:0D08DD000C14F582E493FF12000380E82262
:10088A0043BA8043963F5395C043CA2053C9DF43B6
:10089A00B20253B1FCC2A0C2A2C2A4D2A1D2A3D2B4
:0408AA00A5C2CD22F4
:1008AE0053A23F759850538EFB538EFE53890F43C0
:0F08BE008920758DFD858D8BD28EC2ACD299228B
:1008FD005389F0438901758CFF758AA4D2A9C28CE6
:01090D0022C7
:1007F30012028060208D828C83E493FF60171202C3
:10080300806F60037F0022740129F9E43AFA0DBD79
:1008130000010C80DB120280FF8D828C83E493B590
:0908230007047F0180027F00221E
:06000E008B118A12891318
:10001400E4F526752D01752E01752F01AB11AA1279
:10002400A913852682758300120299FF6420600457
:10003400EFB40904052680E4753300753400753582
:100044002675360075370075382712069FEF700243
:10005400FF22AB11AA12A913AF2605268F8275833E
:1000640000120299642C60037F00227533007534FA
:100074000075352675360075370075382912069FC8
:10008400EF7002FF22AB11AA12A913AF2605268F27
:1000940082758300120299642C60037F00227533F9
:1000A4000075340075352675360075370075382BA4
:1000B40012069FEF7002FF22AB11AA12A913852624
:1000C40082758300120299FF64206004EFB409046E
:1000D400052680E4EF642C60030201EE0526AB11D3
:1000E400AA12A913852682758300120299FF64203F
:1000F4006004EFB40904052680E475330075340008
:1001040075352675360075370075382D12071BEFC7
:100114007002FF22AB11AA12A913852682758300EF
:10012400120299FF64206004EFB40904052680E4F8
:10013400AB11AA12A913AF2605268F82758300126C
:100144000299642C60037F0022AB11AA12A91385C3
:100154002682758300120299FF64206004EFB409BB
:1001640004052680E475330075340075352675362C
:100174000075370075382E12071BEF7002FF22AB93
:1001840011AA12A913852682758300120299FF64AD
:10019400206004EFB40904052680E4AB11AA12A977
:1001A40013AF2605268F82758300120299642C6092
:1001B400037F0022AB11AA12A9138526827583003E
:1001C400120299FF64206004EFB40904052680E458
:1001D400753300753400753526753600753700752E
:1001E400382F12071BEF7002FF22AB11AA12A913BA
:1001F400852682758300120299FF64206004EFB49F
:100204000904052680E4EF60037F0022D3E52894E7
:1002140020E527944E5014E52A9420E529944E5065
:100224000AE52C9420E52B944E40037F0022AB1466
:10023400AA15A916E5278528F012030CAB17AA18EE
:10024400A919E529852AF012030CAB1AAA1BA91CCB
:10025400E52B852CF012030CAB1DAA1EA91FE52D5E
:100264001202E8AB20AA21A922E52E1202E8AB2350
:0B027400AA24A925E52F1202E87F0153
:01027F00225C
:100426008E458F468C478D488A498B4AE4F53DF5C3
:100436003EF53FF540F543F544D3E5469400E545E2
:100446009400401B7C007D021203F9A804A905AAAA
:1004560006AB07E47F107E27FDFC12036780047E4F
:10046600007F018E4C8F4DD3E5489400E5479400FC
:10047600401FAE47AF487C007D021203F9A804A9CD
:1004860005AA06AB07E47F107E27FDFC12036780F2
:10049600047E007F018E4E8F4FD3E54A9400E549D6
:1004A6009400401FAE49AF4A7C007D021203F9A8B2
:1004B60004A905AA06AB07E47F107E27FDFC1203FC
:1004C6006780047E007F018E508F51E54D454C704C
:1004D60005F54C754D01E54F454E7005F54E754FCA
:0D04E60001E55145507005F550755101229A
:0C091D00E4F552C28CC2A0C2A2C2A42207
:0F090E00E4F53C754127754210755201D28C22D9
:07092900E53C60FC02091D22
:10085E00D2CDE5176003D38001C392A1E5186003E2
:10086E00D38001C392A3E5196003D38001C392A57F
:0C087E0012042612090E120929C2CD2214
:1007B500E54BC3940350037F002274FD254BF5825E
:1007C500E434FFF583E0B4232274FE254BF582E47F
:1007D50034FFF583E0B4231374FF254BF582E4342D
:0E07E500FFF583E0B423047F0180027F002231
:10061B0074002FF582E43400F583E4F07B017A005B
:10062B0079007C087DEA1207F3EF60067E087FEF06
:10063B00805E751400751500751608751700751812
:10064B000075190A751A00751B00751C0C751D00B9
:10065B00751E00751F0E75200075210075220F7514
:10066B0023007524007525107B017A007900120098
:10067B000EEF601F850E17850F18851019AB0DAA8D
:10068B000CAD0BAC0AAF09AE0812085E7E087FF703
:03069B001208CD75
:01069E002239
:03000B000204F3F9
:1004F300C0E0C0D0758CFF758AA4E5527003020575
:100503008AD3E5469400E54594004019053EE53E4F
:100513007002053D954DE53D954C4009753D0075CF
:100523003E0063A001D3E5489400E54794004018DA
:100533000540E5407002053F954FE53F954E400865
:10054300753F00754000B2A2D3E54A9400E5499493
:100553000040180544E544700205439551E5439571
:10056300504008754300754400B2A4D3E54294009B
:10057300E54194004011E542154270021541E54200
:0C05830045417003753C01D0D0D0E0323F
:1007730012088A1208AE1208FDD2AF3098FDC29853
:10078300E54BC394405026AF4B054B74002FF582C5
:10079300E43400F583E599F01207B5EF60DD74FDED
:1007A300254BF54BFF12061BE4F54B80CEE4F54BCE
:0207B30080C9FB
:10059B00020773E493A3F8E493A34003F68001F2FC
:1005AB0008DFF48029E493A3F85407240CC8C33361
:1005BB00C4540F4420C8834004F456800146F6DF30
:1005CB00E4800B010204081020408090082CE47E8C
:1005DB00019360BCA3FF543F30E509541FFEE49325
:1005EB00A360010ECF54C025E060A840B8E493A3EC
:1005FB00FAE493A3F8E493A3C8C582C8CAC583CA17
:10060B00F0A3C8C582C8CAC583CADFE9DEE780BECE
:01085D00009A
:10028000BB010689828A83E0225002E722BBFE027C
:09029000E32289828A83E49322AF
:10029900BB010CE58229F582E5833AF583E022501A
:1002A90006E92582F8E622BBFE06E92582F8E22264
:0D02B900E58229F582E5833AF583E493227E
:1002C600BB010989828A83F8E028F022500327F7C8
:1002D60022BBFE05F8E328F3228A838982F8E49399
:0202E6002822CC
:1002E800BB010689828A83F0225002F722BBFE01F5
:0202F800F322EF
:1002FA00EF8DF0A4A8F0CF8CF0A428CE8DF0A42E18
:02030A00FE22D1
:10030C00BB010A89828A83F0E5F0A3F0225006F73C
:0F031C0009A7F01922BBFE06F3E5F009F3192239
:10032B0075F008758200EF2FFFEE33FECD33CDCC89
:10033B0033CCC58233C5829BED9AEC99E58298400C
:10034B000CF582EE9BFEED9AFDEC99FC0FD5F0D6E9
:10035B00E4CEFBE4CDFAE4CCF9A88222B800C1B913
:10036B000059BA002DEC8BF084CFCECDFCE5F0CB51
:10037B00F97818EF2FFFEE33FEED33FDEC33FCEB8A
:10038B0033FB10D703994004EB99FB0FD8E5E4F945
:10039B00FA227818EF2FFFEE33FEED33FDEC33FC32
:1003AB00C933C910D7059BE99A4007EC9BFCE99A26
:1003BB00F90FD8E0E4C9FAE4CCFB2275F010EF2F6B
:1003CB00FFEE33FEED33FDCC33CCC833C810D7076B
:1003DB009BEC9AE899400AED9BFDEC9AFCE899F8A6
:0E03EB000FD5F0DAE4CDFBE4CCFAE4C8F92239
:1003F900EC8EF0A4CCC5F0CCCDF8EFA4CEC5F02D91
:10040900FDE43CFCE8A42EC8C5F03DFDE43CFCEF4E
:0D041900A4FFE5F028FEE43DFDE43CFC22DC
:00000001FF
