:03000000020003F8
:0C000300787FE4F6D8FD75811202004AF7
:0A0180000808183C7EFFFF7E3C18C3
:0A018B0043BA804396075395F8220B
:10014600E4FE53A0FBEF30E70543A001800353A074
:0C015600FEEF25E0FF43A0040EBE08E60B
:01016200227A
:0F01630053A0FD120146AF0512014643A0022230
:1000E1007D017F0C1201637D077F0B120163E4FD2B
:1000F1007F091201637D087F0A120163E4FD7F0F0E
:0301010002016395
:0D0172007C01AF04E4FD1201630CBC09F533
:01017F00225D
:060104008B108A11891224
:10010A00E4FCEC04FFAB10AA11A9128C82758300DF
:0B011A0012008FFD1201630CBC08E70F
:0101250022B7
:10012600E4FDFCC3ED9FEC9E5015E4FBFA0BBB000F
:0F013600010ABA03F8BB20F50DBD00010C80E4EF
:010145002297
:1000BC0012018B1200E11201727B007A0079081296
:1000CC0001047FE87E031201261201727FF47E0187
:0500DC0012012680E482
:10000F000200BCE493A3F8E493A34003F68001F24B
:10001F0008DFF48029E493A3F85407240CC8C333F2
:10002F00C4540F4420C8834004F456800146F6DFC1
:10003F00E4800B0102040810204080900180E47ED0
:10004F00019360BCA3FF543F30E509541FFEE493B6
:10005F00A360010ECF54C025E060A840B8E493A37D
:10006F00FAE493A3F8E493A3C8C582C8CAC583CAA8
:10007F00F0A3C8C582C8CAC583CADFE9DEE780BE60
:01018A000074
:10008F00BB010CE58229F582E5833AF583E0225026
:10009F0006E92582F8E622BBFE06E92582F8E22270
:0D00AF00E58229F582E5833AF583E493228A
:00000001FF
