:0300000002016892
:0C016800787FE4F6D8FD75814D0201AFF0
:1000D7000D0A3D3D3D20B4AEBFDAD0ADD2E9BECD6D
:1000E700D0F7203D3D3D0D0A00B8F1CABDA3BAC403
:1000F700DAC8DD202B2023232320BDE1CAF80D0A0F
:100107000D0A005BCAD5B5BDCDEAD5FBD6A15D20EA
:10011700B3A4B6C83D0020C4DAC8DDA3BA000D0AEF
:100127005BD7AAB7A2CDEAB3C95D0D0A0D0A005B7A
:10013700BEAFB8E65D20CABEDDB3ACB3F6BBBAB39B
:10014700E5C7F8A3ACD2D1D6D8D6C30D0A0D0A009D
:100157005BD0C4CCF85D20D4CBD0D0D5B3A30D0AE7
:010167000097
:0702C300014A0002080000DF
:100003001202A07BFF7A0079D712023A7BFF7A00B3
:1000130079F00200A82098030200AEC298E54AC313
:1000230094405078AF4A054A740A2FF8A699E54AD6
:10003300C3940340E07407254AF8E6B423D7740851
:10004300254AF8E6B423CE7409254AF8E6B423C555
:1000530074FD254AF54A7BFF7A01790A12023AE5D3
:100063004A75F00A842430FF1202BBE54A75F00A90
:1000730084E5F02430FF1202BB7BFF7A01791D1265
:10008300023A7B007A00790AAD4A12025F7BFF7A5B
:1000930001792512023AE4F54A020018E4F54A7B95
:0B00A300FF7A01793612023A020018C1
:1000AE000509E50970020508C394D0E508940740D8
:1000BE000EE4F508F5097BFF7A01795712023A7FB3
:0600CE00017E0012028217
:0300D4000200180F
:1002A00053A23F759850538EFB538EFE53890F43D4
:0B02B0008920758DFD858D8BD28E227C
:0802BB008F993099FDC29922D0
:10023A008B4B8A4C894DAB4BAA4CA94D1201F460E9
:10024A0013054DE54D7002054C14F91201F4FF1225
:05025A0002BB80E2225E
:06025F008B4B8A4C894D17
:10026500E4FEEEC39D5015AB4BAA4CA94D8E82758D
:0C027500830012020DFF1202BB0E80E697
:01028100225A
:10028200D3EF9400EE940040147DC07C03ED1D700A
:0D029200011CED4C70F7EF1F70E61E80E3BD
:01029F00223C
:10017400020003E493A3F8E493A34003F68001F29E
:1001840008DFF48029E493A3F85407240CC8C3338C
:10019400C4540F4420C8834004F456800146F6DF5B
:1001A400E4800B01020408102040809002C3E47E26
:1001B400019360BCA3FF543F30E509541FFEE49350
:1001C400A360010ECF54C025E060A840B8E493A317
:1001D400FAE493A3F8E493A3C8C582C8CAC583CA42
:1001E400F0A3C8C582C8CAC583CADFE9DEE780BEFA
:0102CA000033
:1001F400BB010689828A83E0225002E722BBFE0209
:09020400E32289828A83E493223B
:10020D00BB010CE58229F582E5833AF583E02250A6
:10021D0006E92582F8E622BBFE06E92582F8E222F0
:0D022D00E58229F582E5833AF583E493220A
:00000001FF
