:03000000020456A1
:0C045600787FE4F6D8FD75815202049D09
:10055300044700000000042F00000000044B0000CB
:100563000000043300000000044F000000000437C3
:1005730000000000043B0000000004230000000012
:10058300043F0000000004270000000004430000B3
:0B0593000000042B000000000122000B
:10060B0043BA8043963F5395C05394C05393C04312
:09061B00803F53A0C043A02A2235
:09066A00E5805F6002C322D32287
:0B064900300C0443A0022253A0FD224D
:0B065400300C0443A0082253A0F72242
:0B065F00300C0443A0202253A0DF2237
:0406730053A0EA2284
:0E063A00E4FFFE0FBF00010EBE01F8BF5EF52B
:01064800228F
:0405E7007F147E00FF
:1005EB00E4FDFCC3ED9FEC9E5015E4FBFA0BBB0046
:0F05FB00010ABA03F8BB20F50DBD00010C80E426
:01060A0022CD
:1004E200E4FFFEFDFCAB3EAA3DA93CA83BD31206AD
:1004F20024505AE4FFFEFDFCAB26AA25A924A8231A
:100502001206245048E4FFFEFDFCAB42AA41A9407A
:10051200A83F1206245036E4FFFEFDFCAB2AAA29AE
:10052200A928A8271206245024E4FFFEFDFCAB46AE
:10053200AA45A944A8431206245012E4FFFEFDFC7A
:10054200AB2EAA2DA92CA82B1206244002D322C31B
:010552002286
:10059F00E4F50CF50BF50AF509E47F78FEFDFCABED
:1005AF000CAA0BA90AA809C3120624502A12067313
:1005BF0043A01012063A12067312063AE4FAF9F83B
:1005CF00E50C2401F50CEA350BF50BE9350AF50AB4
:0705DF00E83509F50980C2AF
:0105E60022F2
:09000300C200C201C20212060B88
:10000C007F0112066A92030F12066A92047F041291
:10001C00066A92057F0812066A92067F1012066A1B
:10002C0092077F2012066A9208C209C20AE4F508F8
:10003C00300303C38001D3920B300813200110123C
:10004C0005E77F2012066A5018D209D201801220CF
:10005C00080F30010C1205E77F2012066A4002C21D
:10006C00013007132002101205E77F1012066A50A8
:10007C0018D20AD202801220070F30020C1205E7A8
:10008C007F1012066A4002C20220090302012AE50F
:10009C00226401700302012AE4F532F531F530F5E2
:1000AC002FF54AF549F548F547F536F535F534F5AC
:1000BC0033F54EF54DF54CF54BF53AF539F538F57C
:1000CC0037F552F551F550F54FF526F525F524F594
:1000DC0023F53EF53DF53CF53BF52AF529F528F5DC
:1000EC0027F542F541F540F53FF52EF52DF52CF5AC
:1000FC002BF546F545F544F543D20C12065F120577
:10010C009FE5522478F552E43551F551E43550F51C
:10011C0050E4354FF54F752201C200120673300AB8
:10012C005EE522B40105E4F522804FE5227050858E
:10013C004A2685492585482485472385323E8531C5
:10014C003D85303C852F3B854E2A854D29854C2895
:10015C00854B2785364285354185344085333F852F
:10016C00522E85512D85502C854F2B853A4685393D
:10017C0045853844853743752202C200120673E563
:10018C002264026003020228FFFEFDFCAB26AA25B6
:10019C00A924A823D31206244004C20C8015E4FF22
:1001AC00FEFDFCAB3EAA3DA93CA83BD31206244065
:1001BC0008D20C120649430801E4FFFEFDFCAB2AF1
:1001CC00AA29A928A827D31206244004C20C8015FA
:1001DC00E4FFFEFDFCAB42AA41A940A83FD31206A6
:1001EC00244008D20C120654430804E4FFFEFDFC24
:1001FC00AB2EAA2DA92CA82BD31206244004C20C7A
:10020C008015E4FFFEFDFCAB46AA45A944A843D3E8
:10021C00120624404AD20C12065F8040A20B920CAC
:10022C00120654A20B920C12065FE522B40104C212
:10023C000C8004A20B920C120649E522B4010E4369
:10024C000801300503430804300614800F30040302
:10025C00430801300503430804300603430810E546
:10026C00087008C20012067302000CB2001206736A
:10027C00200003020450E50842A0E522640260035A
:10028C000203B9E50830E058E4FFFEFDFCAB26AAFA
:10029C0025A924A823D3120624401A74FF2526F579
:1002AC0026E52534FFF525E52434FFF524E5233434
:1002BC00FFF523802BE4FFFEFDFCAB3EAA3DA93CE1
:1002CC00A83BD3120624401874FF253EF53EE53DAD
:1002DC0034FFF53DE53C34FFF53CE53B34FFF53BA5
:1002EC00E50830E258E4FFFEFDFCAB2AAA29A92858
:1002FC00A827D3120624401A74FF252AF52AE529CB
:10030C0034FFF529E52834FFF528E52734FFF527D8
:10031C00802BE4FFFEFDFCAB42AA41A940A83FD3D1
:10032C00120624401874FF2542F542E54134FFF5CE
:10033C0041E54034FFF540E53F34FFF53FE508303B
:10034C00E458E4FFFEFDFCAB2EAA2DA92CA82BD360
:10035C00120624401A74FF252EF52EE52D34FFF5D8
:10036C002DE52C34FFF52CE52B34FFF52B802BE4FD
:10037C00FFFEFDFCAB46AA45A944A843D3120624B4
:10038C00401874FF2546F546E54534FFF545E54430
:10039C0034FFF544E54334FFF5431204E250030205
:1003AC000450E4F522C200120673020450E52264E4
:1003BC00016003020450E50830E019E4FAF9F8E5AD
:1003CC00322401F532EA3531F531E93530F530E8D2
:1003DC00352FF52FE50830E233E4FAF9F8300B1736
:1003EC00E54E2401F54EEA354DF54DE9354CF54C0D
:1003FC00E8354BF54B8015E5362401F536EA3535F5
:10040C00F535E93534F534E83533F533E50830E4C2
:10041C0033E4FAF9F8300B17E5522401F552EA35BA
:10042C0051F551E93550F550E8354FF54F8015E54C
:10043C003A2401F53AEA3539F539E93538F538E831
:07044C003537F53712063ABF
:0304530002000C98
:10046200020003E493A3F8E493A34003F68001F2AD
:1004720008DFF48029E493A3F85407240CC8C3339B
:10048200C4540F4420C8834004F456800146F6DF6A
:10049200E4800B0102040810204080900553E47EA2
:1004A200019360BCA3FF543F30E509541FFEE4935F
:1004B200A360010ECF54C025E060A840B8E493A326
:1004C200FAE493A3F8E493A3C8C582C8CAC583CA51
:1004D200F0A3C8C582C8CAC583CADFE9DEE780BE09
:01059E00005C
:10062400EB9FF5F0EA9E42F0E99D42F0EC6480C84D
:0606340064809845F022ED
:00000001FF
